{
  "_format": "hh-sol-artifact-1",
  "contractName": "MyEpicNFT",
  "sourceName": "contracts/MyEpicNFT.sol",
  "abi": [
    {
      "inputs": [],
      "stateMutability": "nonpayable",
      "type": "constructor"
    },
    {
      "anonymous": false,
      "inputs": [
        {
          "indexed": true,
          "internalType": "address",
          "name": "owner",
          "type": "address"
        },
        {
          "indexed": true,
          "internalType": "address",
          "name": "approved",
          "type": "address"
        },
        {
          "indexed": true,
          "internalType": "uint256",
          "name": "tokenId",
          "type": "uint256"
        }
      ],
      "name": "Approval",
      "type": "event"
    },
    {
      "anonymous": false,
      "inputs": [
        {
          "indexed": true,
          "internalType": "address",
          "name": "owner",
          "type": "address"
        },
        {
          "indexed": true,
          "internalType": "address",
          "name": "operator",
          "type": "address"
        },
        {
          "indexed": false,
          "internalType": "bool",
          "name": "approved",
          "type": "bool"
        }
      ],
      "name": "ApprovalForAll",
      "type": "event"
    },
    {
      "anonymous": false,
      "inputs": [
        {
          "indexed": false,
          "internalType": "address",
          "name": "sender",
          "type": "address"
        },
        {
          "indexed": false,
          "internalType": "string",
          "name": "message",
          "type": "string"
        }
      ],
      "name": "MintError",
      "type": "event"
    },
    {
      "anonymous": false,
      "inputs": [
        {
          "indexed": false,
          "internalType": "address",
          "name": "sender",
          "type": "address"
        },
        {
          "indexed": false,
          "internalType": "uint256",
          "name": "tokenId",
          "type": "uint256"
        }
      ],
      "name": "NewEpicNFTMinted",
      "type": "event"
    },
    {
      "anonymous": false,
      "inputs": [
        {
          "indexed": true,
          "internalType": "address",
          "name": "from",
          "type": "address"
        },
        {
          "indexed": true,
          "internalType": "address",
          "name": "to",
          "type": "address"
        },
        {
          "indexed": true,
          "internalType": "uint256",
          "name": "tokenId",
          "type": "uint256"
        }
      ],
      "name": "Transfer",
      "type": "event"
    },
    {
      "inputs": [
        {
          "internalType": "address",
          "name": "to",
          "type": "address"
        },
        {
          "internalType": "uint256",
          "name": "tokenId",
          "type": "uint256"
        }
      ],
      "name": "approve",
      "outputs": [],
      "stateMutability": "nonpayable",
      "type": "function"
    },
    {
      "inputs": [
        {
          "internalType": "address",
          "name": "owner",
          "type": "address"
        }
      ],
      "name": "balanceOf",
      "outputs": [
        {
          "internalType": "uint256",
          "name": "",
          "type": "uint256"
        }
      ],
      "stateMutability": "view",
      "type": "function"
    },
    {
      "inputs": [
        {
          "internalType": "uint256",
          "name": "",
          "type": "uint256"
        }
      ],
      "name": "detail",
      "outputs": [
        {
          "internalType": "uint256",
          "name": "tokenId",
          "type": "uint256"
        },
        {
          "internalType": "string",
          "name": "name",
          "type": "string"
        }
      ],
      "stateMutability": "view",
      "type": "function"
    },
    {
      "inputs": [
        {
          "internalType": "uint256",
          "name": "tokenId",
          "type": "uint256"
        }
      ],
      "name": "getApproved",
      "outputs": [
        {
          "internalType": "address",
          "name": "",
          "type": "address"
        }
      ],
      "stateMutability": "view",
      "type": "function"
    },
    {
      "inputs": [],
      "name": "getTotalNFTsMintedSoFar",
      "outputs": [
        {
          "internalType": "uint256",
          "name": "",
          "type": "uint256"
        }
      ],
      "stateMutability": "view",
      "type": "function"
    },
    {
      "inputs": [],
      "name": "getUserTokenIds",
      "outputs": [
        {
          "components": [
            {
              "internalType": "uint256",
              "name": "tokenId",
              "type": "uint256"
            },
            {
              "internalType": "string",
              "name": "name",
              "type": "string"
            }
          ],
          "internalType": "struct MyEpicNFT.TokenDetail[]",
          "name": "",
          "type": "tuple[]"
        }
      ],
      "stateMutability": "view",
      "type": "function"
    },
    {
      "inputs": [
        {
          "internalType": "address",
          "name": "owner",
          "type": "address"
        },
        {
          "internalType": "address",
          "name": "operator",
          "type": "address"
        }
      ],
      "name": "isApprovedForAll",
      "outputs": [
        {
          "internalType": "bool",
          "name": "",
          "type": "bool"
        }
      ],
      "stateMutability": "view",
      "type": "function"
    },
    {
      "inputs": [],
      "name": "makeAnEpicNFT",
      "outputs": [],
      "stateMutability": "nonpayable",
      "type": "function"
    },
    {
      "inputs": [],
      "name": "name",
      "outputs": [
        {
          "internalType": "string",
          "name": "",
          "type": "string"
        }
      ],
      "stateMutability": "view",
      "type": "function"
    },
    {
      "inputs": [
        {
          "internalType": "uint256",
          "name": "tokenId",
          "type": "uint256"
        }
      ],
      "name": "ownerOf",
      "outputs": [
        {
          "internalType": "address",
          "name": "",
          "type": "address"
        }
      ],
      "stateMutability": "view",
      "type": "function"
    },
    {
      "inputs": [
        {
          "internalType": "uint256",
          "name": "tokenId",
          "type": "uint256"
        }
      ],
      "name": "pickRandomColor",
      "outputs": [
        {
          "internalType": "string",
          "name": "",
          "type": "string"
        }
      ],
      "stateMutability": "view",
      "type": "function"
    },
    {
      "inputs": [
        {
          "internalType": "uint256",
          "name": "tokenId",
          "type": "uint256"
        }
      ],
      "name": "pickRandomFirstWord",
      "outputs": [
        {
          "internalType": "string",
          "name": "",
          "type": "string"
        }
      ],
      "stateMutability": "view",
      "type": "function"
    },
    {
      "inputs": [
        {
          "internalType": "uint256",
          "name": "tokenId",
          "type": "uint256"
        }
      ],
      "name": "pickRandomSecondWord",
      "outputs": [
        {
          "internalType": "string",
          "name": "",
          "type": "string"
        }
      ],
      "stateMutability": "view",
      "type": "function"
    },
    {
      "inputs": [
        {
          "internalType": "uint256",
          "name": "tokenId",
          "type": "uint256"
        }
      ],
      "name": "pickRandomThirdWord",
      "outputs": [
        {
          "internalType": "string",
          "name": "",
          "type": "string"
        }
      ],
      "stateMutability": "view",
      "type": "function"
    },
    {
      "inputs": [
        {
          "internalType": "address",
          "name": "from",
          "type": "address"
        },
        {
          "internalType": "address",
          "name": "to",
          "type": "address"
        },
        {
          "internalType": "uint256",
          "name": "tokenId",
          "type": "uint256"
        }
      ],
      "name": "safeTransferFrom",
      "outputs": [],
      "stateMutability": "nonpayable",
      "type": "function"
    },
    {
      "inputs": [
        {
          "internalType": "address",
          "name": "from",
          "type": "address"
        },
        {
          "internalType": "address",
          "name": "to",
          "type": "address"
        },
        {
          "internalType": "uint256",
          "name": "tokenId",
          "type": "uint256"
        },
        {
          "internalType": "bytes",
          "name": "_data",
          "type": "bytes"
        }
      ],
      "name": "safeTransferFrom",
      "outputs": [],
      "stateMutability": "nonpayable",
      "type": "function"
    },
    {
      "inputs": [
        {
          "internalType": "address",
          "name": "operator",
          "type": "address"
        },
        {
          "internalType": "bool",
          "name": "approved",
          "type": "bool"
        }
      ],
      "name": "setApprovalForAll",
      "outputs": [],
      "stateMutability": "nonpayable",
      "type": "function"
    },
    {
      "inputs": [
        {
          "internalType": "bytes4",
          "name": "interfaceId",
          "type": "bytes4"
        }
      ],
      "name": "supportsInterface",
      "outputs": [
        {
          "internalType": "bool",
          "name": "",
          "type": "bool"
        }
      ],
      "stateMutability": "view",
      "type": "function"
    },
    {
      "inputs": [],
      "name": "symbol",
      "outputs": [
        {
          "internalType": "string",
          "name": "",
          "type": "string"
        }
      ],
      "stateMutability": "view",
      "type": "function"
    },
    {
      "inputs": [
        {
          "internalType": "uint256",
          "name": "tokenId",
          "type": "uint256"
        }
      ],
      "name": "tokenURI",
      "outputs": [
        {
          "internalType": "string",
          "name": "",
          "type": "string"
        }
      ],
      "stateMutability": "view",
      "type": "function"
    },
    {
      "inputs": [
        {
          "internalType": "address",
          "name": "from",
          "type": "address"
        },
        {
          "internalType": "address",
          "name": "to",
          "type": "address"
        },
        {
          "internalType": "uint256",
          "name": "tokenId",
          "type": "uint256"
        }
      ],
      "name": "transferFrom",
      "outputs": [],
      "stateMutability": "nonpayable",
      "type": "function"
    },
    {
      "inputs": [
        {
          "internalType": "address",
          "name": "",
          "type": "address"
        },
        {
          "internalType": "uint256",
          "name": "",
          "type": "uint256"
        }
      ],
      "name": "userOwnedStructs",
      "outputs": [
        {
          "internalType": "uint256",
          "name": "tokenId",
          "type": "uint256"
        },
        {
          "internalType": "string",
          "name": "name",
          "type": "string"
        }
      ],
      "stateMutability": "view",
      "type": "function"
    }
  ],
  "bytecode": "0x608060405260405180610100016040528060d3815260200162004e3d60d391396008908051906020019062000036929190620008a3565b5060405180608001604052806056815260200162004f10605691396009908051906020019062000068929190620008a3565b506040518061010001604052806040518060400160405280600681526020017f534953544552000000000000000000000000000000000000000000000000000081525081526020016040518060400160405280600781526020017f42524f544845520000000000000000000000000000000000000000000000000081525081526020016040518060400160405280600681526020017f464154484552000000000000000000000000000000000000000000000000000081525081526020016040518060400160405280600681526020017f4d4f54484552000000000000000000000000000000000000000000000000000081525081526020016040518060400160405280600681526020017f434f5553494e000000000000000000000000000000000000000000000000000081525081526020016040518060400160405280600b81526020017f4752414e444d4f5448455200000000000000000000000000000000000000000081525081526020016040518060400160405280600581526020017f4e4945434500000000000000000000000000000000000000000000000000000081525081526020016040518060400160405280600681526020017f4e45504845570000000000000000000000000000000000000000000000000000815250815250600a9060086200025d92919062000934565b506040518060c001604052806040518060400160405280600281526020017f495300000000000000000000000000000000000000000000000000000000000081525081526020016040518060400160405280600381526020017f574153000000000000000000000000000000000000000000000000000000000081525081526020016040518060400160405280600381526020017f415245000000000000000000000000000000000000000000000000000000000081525081526020016040518060400160405280600381526020017f574552000000000000000000000000000000000000000000000000000000000081525081526020016040518060400160405280600581526020017f574f554c4400000000000000000000000000000000000000000000000000000081525081526020016040518060400160405280600481526020017f57494c4c00000000000000000000000000000000000000000000000000000000815250815250600b906006620003db9291906200099b565b506040518060c001604052806040518060400160405280600481526020017f46494e450000000000000000000000000000000000000000000000000000000081525081526020016040518060400160405280600581526020017f484150505900000000000000000000000000000000000000000000000000000081525081526020016040518060400160405280600381526020017f534144000000000000000000000000000000000000000000000000000000000081525081526020016040518060400160405280600581526020017f534f52525900000000000000000000000000000000000000000000000000000081525081526020016040518060400160405280600581526020017f414e47525900000000000000000000000000000000000000000000000000000081525081526020016040518060400160405280600381526020017f4d41440000000000000000000000000000000000000000000000000000000000815250815250600c906006620005599291906200099b565b506040518060c001604052806040518060400160405280600381526020017f726564000000000000000000000000000000000000000000000000000000000081525081526020016040518060400160405280600781526020017f233038433241380000000000000000000000000000000000000000000000000081525081526020016040518060400160405280600581526020017f626c61636b00000000000000000000000000000000000000000000000000000081525081526020016040518060400160405280600681526020017f79656c6c6f77000000000000000000000000000000000000000000000000000081525081526020016040518060400160405280600481526020017f626c75650000000000000000000000000000000000000000000000000000000081525081526020016040518060400160405280600581526020017f677265656e000000000000000000000000000000000000000000000000000000815250815250600d906006620006d79291906200099b565b50348015620006e557600080fd5b506040518060400160405280600981526020017f5371756172654e465400000000000000000000000000000000000000000000008152506040518060400160405280600681526020017f535155415245000000000000000000000000000000000000000000000000000081525081600090805190602001906200076a929190620008a3565b50806001908051906020019062000783929190620008a3565b505050620007d16040518060400160405280601e81526020017f54686973206973206d79204e465420636f6e74726163742e20576f6168210000815250620007d760201b6200168d1760201c565b62000bbc565b6200087781604051602401620007ee919062000ad0565b6040516020818303038152906040527f41304fac000000000000000000000000000000000000000000000000000000007bffffffffffffffffffffffffffffffffffffffffffffffffffffffff19166020820180517bffffffffffffffffffffffffffffffffffffffffffffffffffffffff83818316178352505050506200087a60201b60201c565b50565b60008151905060006a636f6e736f6c652e6c6f679050602083016000808483855afa5050505050565b828054620008b19062000b46565b90600052602060002090601f016020900481019282620008d5576000855562000921565b82601f10620008f057805160ff191683800117855562000921565b8280016001018555821562000921579182015b828111156200092057825182559160200191906001019062000903565b5b50905062000930919062000a02565b5090565b82805482825590600052602060002090810192821562000988579160200282015b828111156200098757825182908051906020019062000976929190620008a3565b509160200191906001019062000955565b5b50905062000997919062000a21565b5090565b828054828255906000526020600020908101928215620009ef579160200282015b82811115620009ee578251829080519060200190620009dd929190620008a3565b5091602001919060010190620009bc565b5b509050620009fe919062000a21565b5090565b5b8082111562000a1d57600081600090555060010162000a03565b5090565b5b8082111562000a45576000818162000a3b919062000a49565b5060010162000a22565b5090565b50805462000a579062000b46565b6000825580601f1062000a6b575062000a8c565b601f01602090049060005260206000209081019062000a8b919062000a02565b5b50565b600062000a9c8262000af4565b62000aa8818562000aff565b935062000aba81856020860162000b10565b62000ac58162000bab565b840191505092915050565b6000602082019050818103600083015262000aec818462000a8f565b905092915050565b600081519050919050565b600082825260208201905092915050565b60005b8381101562000b3057808201518184015260208101905062000b13565b8381111562000b40576000848401525b50505050565b6000600282049050600182168062000b5f57607f821691505b6020821081141562000b765762000b7562000b7c565b5b50919050565b7f4e487b7100000000000000000000000000000000000000000000000000000000600052602260045260246000fd5b6000601f19601f8301169050919050565b6142718062000bcc6000396000f3fe608060405234801561001057600080fd5b50600436106101425760003560e01c80636352211e116100b8578063b88d4fde1161007c578063b88d4fde146103b0578063c575757a146103cc578063c87b56dd146103fc578063db487f361461042c578063de9d132f1461045d578063e985e9c51461046757610142565b80636352211e146102e657806370a082311461031657806395d89b4114610346578063a22cb46514610364578063b187301f1461038057610142565b80631b4a28671161010a5780631b4a2867146101ff57806323b872dd14610230578063270760781461024c5780632de38d681461026a57806342842e0e1461029a578063514dc8c6146102b657610142565b806301ffc9a714610147578063060475901461017757806306fdde0314610195578063081812fc146101b3578063095ea7b3146101e3575b600080fd5b610161600480360381019061015c9190612c0b565b610497565b60405161016e9190613a6d565b60405180910390f35b61017f610579565b60405161018c9190613ce8565b60405180910390f35b61019d61058a565b6040516101aa9190613a88565b60405180910390f35b6101cd60048036038101906101c89190612c5d565b61061c565b6040516101da919061398d565b60405180910390f35b6101fd60048036038101906101f89190612bcf565b6106a1565b005b61021960048036038101906102149190612bcf565b6107b9565b604051610227929190613d03565b60405180910390f35b61024a60048036038101906102459190612ac9565b610882565b005b6102546108e2565b6040516102619190613a4b565b60405180910390f35b610284600480360381019061027f9190612c5d565b610a1a565b6040516102919190613a88565b60405180910390f35b6102b460048036038101906102af9190612ac9565b610b38565b005b6102d060048036038101906102cb9190612c5d565b610b58565b6040516102dd9190613a88565b60405180910390f35b61030060048036038101906102fb9190612c5d565b610c76565b60405161030d919061398d565b60405180910390f35b610330600480360381019061032b9190612a64565b610d28565b60405161033d9190613ce8565b60405180910390f35b61034e610de0565b60405161035b9190613a88565b60405180910390f35b61037e60048036038101906103799190612b93565b610e72565b005b61039a60048036038101906103959190612c5d565b610e88565b6040516103a79190613a88565b60405180910390f35b6103ca60048036038101906103c59190612b18565b610fa6565b005b6103e660048036038101906103e19190612c5d565b611008565b6040516103f39190613a88565b60405180910390f35b61041660048036038101906104119190612c5d565b611126565b6040516104239190613a88565b60405180910390f35b61044660048036038101906104419190612c5d565b611278565b604051610454929190613d03565b60405180910390f35b610465611334565b005b610481600480360381019061047c9190612a8d565b6115f9565b60405161048e9190613a6d565b60405180910390f35b60007f80ac58cd000000000000000000000000000000000000000000000000000000007bffffffffffffffffffffffffffffffffffffffffffffffffffffffff1916827bffffffffffffffffffffffffffffffffffffffffffffffffffffffff1916148061056257507f5b5e139f000000000000000000000000000000000000000000000000000000007bffffffffffffffffffffffffffffffffffffffffffffffffffffffff1916827bffffffffffffffffffffffffffffffffffffffffffffffffffffffff1916145b80610572575061057182611726565b5b9050919050565b60006105856007611790565b905090565b60606000805461059990614001565b80601f01602080910402602001604051908101604052809291908181526020018280546105c590614001565b80156106125780601f106105e757610100808354040283529160200191610612565b820191906000526020600020905b8154815290600101906020018083116105f557829003601f168201915b5050505050905090565b60006106278261179e565b610666576040517f08c379a000000000000000000000000000000000000000000000000000000000815260040161065d90613c48565b60405180910390fd5b6004600083815260200190815260200160002060009054906101000a900473ffffffffffffffffffffffffffffffffffffffff169050919050565b60006106ac82610c76565b90508073ffffffffffffffffffffffffffffffffffffffff168373ffffffffffffffffffffffffffffffffffffffff16141561071d576040517f08c379a000000000000000000000000000000000000000000000000000000000815260040161071490613ca8565b60405180910390fd5b8073ffffffffffffffffffffffffffffffffffffffff1661073c61180a565b73ffffffffffffffffffffffffffffffffffffffff16148061076b575061076a8161076561180a565b6115f9565b5b6107aa576040517f08c379a00000000000000000000000000000000000000000000000000000000081526004016107a190613b88565b60405180910390fd5b6107b48383611812565b505050565b600f60205281600052604060002081815481106107d557600080fd5b9060005260206000209060020201600091509150508060000154908060010180546107ff90614001565b80601f016020809104026020016040519081016040528092919081815260200182805461082b90614001565b80156108785780601f1061084d57610100808354040283529160200191610878565b820191906000526020600020905b81548152906001019060200180831161085b57829003601f168201915b5050505050905082565b61089361088d61180a565b826118cb565b6108d2576040517f08c379a00000000000000000000000000000000000000000000000000000000081526004016108c990613cc8565b60405180910390fd5b6108dd8383836119a9565b505050565b6060600f60003373ffffffffffffffffffffffffffffffffffffffff1673ffffffffffffffffffffffffffffffffffffffff168152602001908152602001600020805480602002602001604051908101604052809291908181526020016000905b82821015610a1157838290600052602060002090600202016040518060400160405290816000820154815260200160018201805461098090614001565b80601f01602080910402602001604051908101604052809291908181526020018280546109ac90614001565b80156109f95780601f106109ce576101008083540402835291602001916109f9565b820191906000526020600020905b8154815290600101906020018083116109dc57829003601f168201915b50505050508152505081526020019060010190610943565b50505050905090565b60606000610a4e610a2a84611c05565b604051602001610a3a9190613927565b604051602081830303815290604052611db2565b9050600a8054905081610a61919061407c565b9050600a8181548110610a9d577f4e487b7100000000000000000000000000000000000000000000000000000000600052603260045260246000fd5b906000526020600020018054610ab290614001565b80601f0160208091040260200160405190810160405280929190818152602001828054610ade90614001565b8015610b2b5780601f10610b0057610100808354040283529160200191610b2b565b820191906000526020600020905b815481529060010190602001808311610b0e57829003601f168201915b5050505050915050919050565b610b5383838360405180602001604052806000815250610fa6565b505050565b60606000610b8c610b6884611c05565b604051602001610b78919061396b565b604051602081830303815290604052611db2565b9050600d8054905081610b9f919061407c565b9050600d8181548110610bdb577f4e487b7100000000000000000000000000000000000000000000000000000000600052603260045260246000fd5b906000526020600020018054610bf090614001565b80601f0160208091040260200160405190810160405280929190818152602001828054610c1c90614001565b8015610c695780601f10610c3e57610100808354040283529160200191610c69565b820191906000526020600020905b815481529060010190602001808311610c4c57829003601f168201915b5050505050915050919050565b6000806002600084815260200190815260200160002060009054906101000a900473ffffffffffffffffffffffffffffffffffffffff169050600073ffffffffffffffffffffffffffffffffffffffff168173ffffffffffffffffffffffffffffffffffffffff161415610d1f576040517f08c379a0000000000000000000000000000000000000000000000000000000008152600401610d1690613bc8565b60405180910390fd5b80915050919050565b60008073ffffffffffffffffffffffffffffffffffffffff168273ffffffffffffffffffffffffffffffffffffffff161415610d99576040517f08c379a0000000000000000000000000000000000000000000000000000000008152600401610d9090613ba8565b60405180910390fd5b600360008373ffffffffffffffffffffffffffffffffffffffff1673ffffffffffffffffffffffffffffffffffffffff168152602001908152602001600020549050919050565b606060018054610def90614001565b80601f0160208091040260200160405190810160405280929190818152602001828054610e1b90614001565b8015610e685780601f10610e3d57610100808354040283529160200191610e68565b820191906000526020600020905b815481529060010190602001808311610e4b57829003601f168201915b5050505050905090565b610e84610e7d61180a565b8383611de5565b5050565b60606000610ebc610e9884611c05565b604051602001610ea891906138c0565b604051602081830303815290604052611db2565b9050600b8054905081610ecf919061407c565b9050600b8181548110610f0b577f4e487b7100000000000000000000000000000000000000000000000000000000600052603260045260246000fd5b906000526020600020018054610f2090614001565b80601f0160208091040260200160405190810160405280929190818152602001828054610f4c90614001565b8015610f995780601f10610f6e57610100808354040283529160200191610f99565b820191906000526020600020905b815481529060010190602001808311610f7c57829003601f168201915b5050505050915050919050565b610fb7610fb161180a565b836118cb565b610ff6576040517f08c379a0000000000000000000000000000000000000000000000000000000008152600401610fed90613cc8565b60405180910390fd5b61100284848484611f52565b50505050565b6060600061103c61101884611c05565b604051602001611028919061389e565b604051602081830303815290604052611db2565b9050600c805490508161104f919061407c565b9050600c818154811061108b577f4e487b7100000000000000000000000000000000000000000000000000000000600052603260045260246000fd5b9060005260206000200180546110a090614001565b80601f01602080910402602001604051908101604052809291908181526020018280546110cc90614001565b80156111195780601f106110ee57610100808354040283529160200191611119565b820191906000526020600020905b8154815290600101906020018083116110fc57829003601f168201915b5050505050915050919050565b60606111318261179e565b611170576040517f08c379a000000000000000000000000000000000000000000000000000000000815260040161116790613c28565b60405180910390fd5b600060066000848152602001908152602001600020805461119090614001565b80601f01602080910402602001604051908101604052809291908181526020018280546111bc90614001565b80156112095780601f106111de57610100808354040283529160200191611209565b820191906000526020600020905b8154815290600101906020018083116111ec57829003601f168201915b50505050509050600061121a611fae565b9050600081511415611230578192505050611273565b60008251111561126557808260405160200161124d929190613800565b60405160208183030381529060405292505050611273565b61126e84611fc5565b925050505b919050565b600e818154811061128857600080fd5b90600052602060002090600202016000915090508060000154908060010180546112b190614001565b80601f01602080910402602001604051908101604052809291908181526020018280546112dd90614001565b801561132a5780601f106112ff5761010080835404028352916020019161132a565b820191906000526020600020905b81548152906001019060200180831161130d57829003601f168201915b5050505050905082565b60006113406007611790565b90506032811115611388577f2bfe6142b1725250de0c4fe1ae61a85b3872a0c7cb966edec89ee1f49bad37783360405161137a91906139f4565b60405180910390a1506115f7565b600061139382610a1a565b905060006113a083610e88565b905060006113ad84611008565b905060008383836040516020016113c693929190613824565b604051602081830303815290604052905060006113e286610b58565b905060006008826009856040516020016113ff9493929190613855565b604051602081830303815290604052905060006114448461141f8461206c565b6040516020016114309291906138e2565b60405160208183030381529060405261206c565b90506000816040516020016114599190613949565b6040516020818303038152906040529050611474338a61222a565b61147e8982612248565b61148860076122bc565b6114ab6040518060600160405280602581526020016141d7602591398a336122d2565b600f60003373ffffffffffffffffffffffffffffffffffffffff1673ffffffffffffffffffffffffffffffffffffffff168152602001908152602001600020600e9080546114fa929190612772565b50600e60405180604001604052808b81526020018781525090806001815401808255809150506001900390600052602060002090600202016000909190919091506000820151816000015560208201518160010190805190602001906115619291906127f4565b505050600e600f60003373ffffffffffffffffffffffffffffffffffffffff1673ffffffffffffffffffffffffffffffffffffffff1681526020019081526020016000209080546115b3929190612772565b507febb98688741ffa4c7589bf325de30cf7becb63de567842e1ccdb6cb949fdc82c338a6040516115e5929190613a22565b60405180910390a15050505050505050505b565b6000600560008473ffffffffffffffffffffffffffffffffffffffff1673ffffffffffffffffffffffffffffffffffffffff16815260200190815260200160002060008373ffffffffffffffffffffffffffffffffffffffff1673ffffffffffffffffffffffffffffffffffffffff16815260200190815260200160002060009054906101000a900460ff16905092915050565b611723816040516024016116a19190613a88565b6040516020818303038152906040527f41304fac000000000000000000000000000000000000000000000000000000007bffffffffffffffffffffffffffffffffffffffffffffffffffffffff19166020820180517bffffffffffffffffffffffffffffffffffffffffffffffffffffffff8381831617835250505050612371565b50565b60007f01ffc9a7000000000000000000000000000000000000000000000000000000007bffffffffffffffffffffffffffffffffffffffffffffffffffffffff1916827bffffffffffffffffffffffffffffffffffffffffffffffffffffffff1916149050919050565b600081600001549050919050565b60008073ffffffffffffffffffffffffffffffffffffffff166002600084815260200190815260200160002060009054906101000a900473ffffffffffffffffffffffffffffffffffffffff1673ffffffffffffffffffffffffffffffffffffffff1614159050919050565b600033905090565b816004600083815260200190815260200160002060006101000a81548173ffffffffffffffffffffffffffffffffffffffff021916908373ffffffffffffffffffffffffffffffffffffffff160217905550808273ffffffffffffffffffffffffffffffffffffffff1661188583610c76565b73ffffffffffffffffffffffffffffffffffffffff167f8c5be1e5ebec7d5bd14f71427d1e84f3dd0314c0f7b2291e5b200ac8c7c3b92560405160405180910390a45050565b60006118d68261179e565b611915576040517f08c379a000000000000000000000000000000000000000000000000000000000815260040161190c90613b68565b60405180910390fd5b600061192083610c76565b90508073ffffffffffffffffffffffffffffffffffffffff168473ffffffffffffffffffffffffffffffffffffffff16148061198f57508373ffffffffffffffffffffffffffffffffffffffff166119778461061c565b73ffffffffffffffffffffffffffffffffffffffff16145b806119a0575061199f81856115f9565b5b91505092915050565b8273ffffffffffffffffffffffffffffffffffffffff166119c982610c76565b73ffffffffffffffffffffffffffffffffffffffff1614611a1f576040517f08c379a0000000000000000000000000000000000000000000000000000000008152600401611a1690613c68565b60405180910390fd5b600073ffffffffffffffffffffffffffffffffffffffff168273ffffffffffffffffffffffffffffffffffffffff161415611a8f576040517f08c379a0000000000000000000000000000000000000000000000000000000008152600401611a8690613b28565b60405180910390fd5b611a9a83838361239a565b611aa5600082611812565b6001600360008573ffffffffffffffffffffffffffffffffffffffff1673ffffffffffffffffffffffffffffffffffffffff1681526020019081526020016000206000828254611af59190613f17565b925050819055506001600360008473ffffffffffffffffffffffffffffffffffffffff1673ffffffffffffffffffffffffffffffffffffffff1681526020019081526020016000206000828254611b4c9190613e36565b92505081905550816002600083815260200190815260200160002060006101000a81548173ffffffffffffffffffffffffffffffffffffffff021916908373ffffffffffffffffffffffffffffffffffffffff160217905550808273ffffffffffffffffffffffffffffffffffffffff168473ffffffffffffffffffffffffffffffffffffffff167fddf252ad1be2c89b69c2b068fc378daa952ba7f163c4a11628f55a4df523b3ef60405160405180910390a4505050565b60606000821415611c4d576040518060400160405280600181526020017f30000000000000000000000000000000000000000000000000000000000000008152509050611dad565b600082905060005b60008214611c7f578080611c6890614033565b915050600a82611c789190613e8c565b9150611c55565b60008167ffffffffffffffff811115611cc1577f4e487b7100000000000000000000000000000000000000000000000000000000600052604160045260246000fd5b6040519080825280601f01601f191660200182016040528015611cf35781602001600182028036833780820191505090505b5090505b60008514611da657600182611d0c9190613f17565b9150600a85611d1b919061407c565b6030611d279190613e36565b60f81b818381518110611d63577f4e487b7100000000000000000000000000000000000000000000000000000000600052603260045260246000fd5b60200101907effffffffffffffffffffffffffffffffffffffffffffffffffffffffffffff1916908160001a905350600a85611d9f9190613e8c565b9450611cf7565b8093505050505b919050565b600081604051602001611dc591906137e9565b6040516020818303038152906040528051906020012060001c9050919050565b8173ffffffffffffffffffffffffffffffffffffffff168373ffffffffffffffffffffffffffffffffffffffff161415611e54576040517f08c379a0000000000000000000000000000000000000000000000000000000008152600401611e4b90613b48565b60405180910390fd5b80600560008573ffffffffffffffffffffffffffffffffffffffff1673ffffffffffffffffffffffffffffffffffffffff16815260200190815260200160002060008473ffffffffffffffffffffffffffffffffffffffff1673ffffffffffffffffffffffffffffffffffffffff16815260200190815260200160002060006101000a81548160ff0219169083151502179055508173ffffffffffffffffffffffffffffffffffffffff168373ffffffffffffffffffffffffffffffffffffffff167f17307eab39ab6107e8899845ad3d59bd9653f200f220920489ca2b5937696c3183604051611f459190613a6d565b60405180910390a3505050565b611f5d8484846119a9565b611f698484848461239f565b611fa8576040517f08c379a0000000000000000000000000000000000000000000000000000000008152600401611f9f90613ae8565b60405180910390fd5b50505050565b606060405180602001604052806000815250905090565b6060611fd08261179e565b61200f576040517f08c379a000000000000000000000000000000000000000000000000000000000815260040161200690613c88565b60405180910390fd5b6000612019611fae565b905060008151116120395760405180602001604052806000815250612064565b8061204384611c05565b604051602001612054929190613800565b6040516020818303038152906040525b915050919050565b606060008251905060008114156120955760405180602001604052806000815250915050612225565b600060036002836120a69190613e36565b6120b09190613e8c565b60046120bc9190613ebd565b905060006020826120cd9190613e36565b67ffffffffffffffff81111561210c577f4e487b7100000000000000000000000000000000000000000000000000000000600052604160045260246000fd5b6040519080825280601f01601f19166020018201604052801561213e5781602001600182028036833780820191505090505b50905060006040518060600160405280604081526020016141fc604091399050600181016020830160005b868110156121e25760038101905062ffffff818a015116603f8160121c168401518060081b905060ff603f83600c1c1686015116810190508060081b905060ff603f8360061c1686015116810190508060081b905060ff603f831686015116810190508060e01b90508084526004840193505050612169565b5060038606600181146121fc576002811461220c57612217565b613d3d60f01b6002830352612217565b603d60f81b60018303525b508484525050819450505050505b919050565b612244828260405180602001604052806000815250612536565b5050565b6122518261179e565b612290576040517f08c379a000000000000000000000000000000000000000000000000000000000815260040161228790613be8565b60405180910390fd5b806006600084815260200190815260200160002090805190602001906122b79291906127f4565b505050565b6001816000016000828254019250508190555050565b61236c8383836040516024016122ea93929190613aaa565b6040516020818303038152906040527fe3849f79000000000000000000000000000000000000000000000000000000007bffffffffffffffffffffffffffffffffffffffffffffffffffffffff19166020820180517bffffffffffffffffffffffffffffffffffffffffffffffffffffffff8381831617835250505050612371565b505050565b60008151905060006a636f6e736f6c652e6c6f679050602083016000808483855afa5050505050565b505050565b60006123c08473ffffffffffffffffffffffffffffffffffffffff16612591565b15612529578373ffffffffffffffffffffffffffffffffffffffff1663150b7a026123e961180a565b8786866040518563ffffffff1660e01b815260040161240b94939291906139a8565b602060405180830381600087803b15801561242557600080fd5b505af192505050801561245657506040513d601f19601f820116820180604052508101906124539190612c34565b60015b6124d9573d8060008114612486576040519150601f19603f3d011682016040523d82523d6000602084013e61248b565b606091505b506000815114156124d1576040517f08c379a00000000000000000000000000000000000000000000000000000000081526004016124c890613ae8565b60405180910390fd5b805181602001fd5b63150b7a0260e01b7bffffffffffffffffffffffffffffffffffffffffffffffffffffffff1916817bffffffffffffffffffffffffffffffffffffffffffffffffffffffff19161491505061252e565b600190505b949350505050565b61254083836125a4565b61254d600084848461239f565b61258c576040517f08c379a000000000000000000000000000000000000000000000000000000000815260040161258390613ae8565b60405180910390fd5b505050565b600080823b905060008111915050919050565b600073ffffffffffffffffffffffffffffffffffffffff168273ffffffffffffffffffffffffffffffffffffffff161415612614576040517f08c379a000000000000000000000000000000000000000000000000000000000815260040161260b90613c08565b60405180910390fd5b61261d8161179e565b1561265d576040517f08c379a000000000000000000000000000000000000000000000000000000000815260040161265490613b08565b60405180910390fd5b6126696000838361239a565b6001600360008473ffffffffffffffffffffffffffffffffffffffff1673ffffffffffffffffffffffffffffffffffffffff16815260200190815260200160002060008282546126b99190613e36565b92505081905550816002600083815260200190815260200160002060006101000a81548173ffffffffffffffffffffffffffffffffffffffff021916908373ffffffffffffffffffffffffffffffffffffffff160217905550808273ffffffffffffffffffffffffffffffffffffffff16600073ffffffffffffffffffffffffffffffffffffffff167fddf252ad1be2c89b69c2b068fc378daa952ba7f163c4a11628f55a4df523b3ef60405160405180910390a45050565b8280548282559060005260206000209060020281019282156127e35760005260206000209160020282015b828111156127e25782826000820154816000015560018201816001019080546127c590614001565b6127d092919061287a565b5050509160020191906002019061279d565b5b5090506127f09190612907565b5090565b82805461280090614001565b90600052602060002090601f0160209004810192826128225760008555612869565b82601f1061283b57805160ff1916838001178555612869565b82800160010185558215612869579182015b8281111561286857825182559160200191906001019061284d565b5b5090506128769190612936565b5090565b82805461288690614001565b90600052602060002090601f0160209004810192826128a857600085556128f6565b82601f106128b957805485556128f6565b828001600101855582156128f657600052602060002091601f016020900482015b828111156128f55782548255916001019190600101906128da565b5b5090506129039190612936565b5090565b5b80821115612932576000808201600090556001820160006129299190612953565b50600201612908565b5090565b5b8082111561294f576000816000905550600101612937565b5090565b50805461295f90614001565b6000825580601f106129715750612990565b601f01602090049060005260206000209081019061298f9190612936565b5b50565b60006129a66129a184613d64565b613d33565b9050828152602081018484840111156129be57600080fd5b6129c9848285613fbf565b509392505050565b6000813590506129e08161417a565b92915050565b6000813590506129f581614191565b92915050565b600081359050612a0a816141a8565b92915050565b600081519050612a1f816141a8565b92915050565b600082601f830112612a3657600080fd5b8135612a46848260208601612993565b91505092915050565b600081359050612a5e816141bf565b92915050565b600060208284031215612a7657600080fd5b6000612a84848285016129d1565b91505092915050565b60008060408385031215612aa057600080fd5b6000612aae858286016129d1565b9250506020612abf858286016129d1565b9150509250929050565b600080600060608486031215612ade57600080fd5b6000612aec868287016129d1565b9350506020612afd868287016129d1565b9250506040612b0e86828701612a4f565b9150509250925092565b60008060008060808587031215612b2e57600080fd5b6000612b3c878288016129d1565b9450506020612b4d878288016129d1565b9350506040612b5e87828801612a4f565b925050606085013567ffffffffffffffff811115612b7b57600080fd5b612b8787828801612a25565b91505092959194509250565b60008060408385031215612ba657600080fd5b6000612bb4858286016129d1565b9250506020612bc5858286016129e6565b9150509250929050565b60008060408385031215612be257600080fd5b6000612bf0858286016129d1565b9250506020612c0185828601612a4f565b9150509250929050565b600060208284031215612c1d57600080fd5b6000612c2b848285016129fb565b91505092915050565b600060208284031215612c4657600080fd5b6000612c5484828501612a10565b91505092915050565b600060208284031215612c6f57600080fd5b6000612c7d84828501612a4f565b91505092915050565b6000612c92838361378e565b905092915050565b612ca381613f4b565b82525050565b6000612cb482613db9565b612cbe8185613de7565b935083602082028501612cd085613d94565b8060005b85811015612d0c5784840389528151612ced8582612c86565b9450612cf883613dda565b925060208a01995050600181019050612cd4565b50829750879550505050505092915050565b612d2781613f5d565b82525050565b6000612d3882613dc4565b612d428185613df8565b9350612d52818560208601613fce565b612d5b81614169565b840191505092915050565b6000612d7182613dcf565b612d7b8185613e09565b9350612d8b818560208601613fce565b612d9481614169565b840191505092915050565b6000612daa82613dcf565b612db48185613e1a565b9350612dc4818560208601613fce565b612dcd81614169565b840191505092915050565b6000612de382613dcf565b612ded8185613e2b565b9350612dfd818560208601613fce565b80840191505092915050565b60008154612e1681614001565b612e208186613e2b565b94506001821660008114612e3b5760018114612e4c57612e7f565b60ff19831686528186019350612e7f565b612e5585613da4565b60005b83811015612e7757815481890152600182019150602081019050612e58565b838801955050505b50505092915050565b6000612e95603283613e1a565b91507f4552433732313a207472616e7366657220746f206e6f6e20455243373231526560008301527f63656976657220696d706c656d656e74657200000000000000000000000000006020830152604082019050919050565b6000612efb601c83613e1a565b91507f4552433732313a20746f6b656e20616c7265616479206d696e746564000000006000830152602082019050919050565b6000612f3b602a83613e1a565b91507f4f707073212043616e6e6f7420637265617465206d6f7265207468616e20313060008301527f2045706963204e465473000000000000000000000000000000000000000000006020830152604082019050919050565b6000612fa1600a83613e2b565b91507f54484952445f574f5244000000000000000000000000000000000000000000006000830152600a82019050919050565b6000612fe1602483613e1a565b91507f4552433732313a207472616e7366657220746f20746865207a65726f2061646460008301527f72657373000000000000000000000000000000000000000000000000000000006020830152604082019050919050565b6000613047601983613e1a565b91507f4552433732313a20617070726f766520746f2063616c6c6572000000000000006000830152602082019050919050565b6000613087606383613e2b565b91507f222c20226465736372697074696f6e223a20224120686967686c79206163636c60008301527f61696d656420636f6c6c656374696f6e206f6620737175617265732e222c202260208301527f696d616765223a2022646174613a696d6167652f7376672b786d6c3b6261736560408301527f36342c00000000000000000000000000000000000000000000000000000000006060830152606382019050919050565b6000613139600b83613e2b565b91507f5345434f4e445f574f52440000000000000000000000000000000000000000006000830152600b82019050919050565b6000613179602c83613e1a565b91507f4552433732313a206f70657261746f7220717565727920666f72206e6f6e657860008301527f697374656e7420746f6b656e00000000000000000000000000000000000000006020830152604082019050919050565b60006131df600d83613e2b565b91507f3c2f746578743e3c2f7376673e000000000000000000000000000000000000006000830152600d82019050919050565b600061321f603883613e1a565b91507f4552433732313a20617070726f76652063616c6c6572206973206e6f74206f7760008301527f6e6572206e6f7220617070726f76656420666f7220616c6c00000000000000006020830152604082019050919050565b6000613285602a83613e1a565b91507f4552433732313a2062616c616e636520717565727920666f7220746865207a6560008301527f726f2061646472657373000000000000000000000000000000000000000000006020830152604082019050919050565b60006132eb602983613e1a565b91507f4552433732313a206f776e657220717565727920666f72206e6f6e657869737460008301527f656e7420746f6b656e00000000000000000000000000000000000000000000006020830152604082019050919050565b6000613351602e83613e1a565b91507f45524337323155524953746f726167653a2055524920736574206f66206e6f6e60008301527f6578697374656e7420746f6b656e0000000000000000000000000000000000006020830152604082019050919050565b60006133b7600283613e2b565b91507f227d0000000000000000000000000000000000000000000000000000000000006000830152600282019050919050565b60006133f7602083613e1a565b91507f4552433732313a206d696e7420746f20746865207a65726f20616464726573736000830152602082019050919050565b6000613437603183613e1a565b91507f45524337323155524953746f726167653a2055524920717565727920666f722060008301527f6e6f6e6578697374656e7420746f6b656e0000000000000000000000000000006020830152604082019050919050565b600061349d602c83613e1a565b91507f4552433732313a20617070726f76656420717565727920666f72206e6f6e657860008301527f697374656e7420746f6b656e00000000000000000000000000000000000000006020830152604082019050919050565b6000613503602983613e1a565b91507f4552433732313a207472616e73666572206f6620746f6b656e2074686174206960008301527f73206e6f74206f776e00000000000000000000000000000000000000000000006020830152604082019050919050565b6000613569602f83613e1a565b91507f4552433732314d657461646174613a2055524920717565727920666f72206e6f60008301527f6e6578697374656e7420746f6b656e00000000000000000000000000000000006020830152604082019050919050565b60006135cf600a83613e2b565b91507f7b226e616d65223a2022000000000000000000000000000000000000000000006000830152600a82019050919050565b600061360f602183613e1a565b91507f4552433732313a20617070726f76616c20746f2063757272656e74206f776e6560008301527f72000000000000000000000000000000000000000000000000000000000000006020830152604082019050919050565b6000613675600a83613e2b565b91507f46495253545f574f5244000000000000000000000000000000000000000000006000830152600a82019050919050565b60006136b5601d83613e2b565b91507f646174613a6170706c69636174696f6e2f6a736f6e3b6261736536342c0000006000830152601d82019050919050565b60006136f5603183613e1a565b91507f4552433732313a207472616e736665722063616c6c6572206973206e6f74206f60008301527f776e6572206e6f7220617070726f7665640000000000000000000000000000006020830152604082019050919050565b600061375b600583613e2b565b91507f434f4c4f520000000000000000000000000000000000000000000000000000006000830152600582019050919050565b60006040830160008301516137a660008601826137cb565b50602083015184820360208601526137be8282612d66565b9150508091505092915050565b6137d481613fb5565b82525050565b6137e381613fb5565b82525050565b60006137f58284612dd8565b915081905092915050565b600061380c8285612dd8565b91506138188284612dd8565b91508190509392505050565b60006138308286612dd8565b915061383c8285612dd8565b91506138488284612dd8565b9150819050949350505050565b60006138618287612e09565b915061386d8286612dd8565b91506138798285612e09565b91506138858284612dd8565b9150613890826131d2565b915081905095945050505050565b60006138a982612f94565b91506138b58284612dd8565b915081905092915050565b60006138cb8261312c565b91506138d78284612dd8565b915081905092915050565b60006138ed826135c2565b91506138f98285612dd8565b91506139048261307a565b91506139108284612dd8565b915061391b826133aa565b91508190509392505050565b600061393282613668565b915061393e8284612dd8565b915081905092915050565b6000613954826136a8565b91506139608284612dd8565b915081905092915050565b60006139768261374e565b91506139828284612dd8565b915081905092915050565b60006020820190506139a26000830184612c9a565b92915050565b60006080820190506139bd6000830187612c9a565b6139ca6020830186612c9a565b6139d760408301856137da565b81810360608301526139e98184612d2d565b905095945050505050565b6000604082019050613a096000830184612c9a565b8181036020830152613a1a81612f2e565b905092915050565b6000604082019050613a376000830185612c9a565b613a4460208301846137da565b9392505050565b60006020820190508181036000830152613a658184612ca9565b905092915050565b6000602082019050613a826000830184612d1e565b92915050565b60006020820190508181036000830152613aa28184612d9f565b905092915050565b60006060820190508181036000830152613ac48186612d9f565b9050613ad360208301856137da565b613ae06040830184612c9a565b949350505050565b60006020820190508181036000830152613b0181612e88565b9050919050565b60006020820190508181036000830152613b2181612eee565b9050919050565b60006020820190508181036000830152613b4181612fd4565b9050919050565b60006020820190508181036000830152613b618161303a565b9050919050565b60006020820190508181036000830152613b818161316c565b9050919050565b60006020820190508181036000830152613ba181613212565b9050919050565b60006020820190508181036000830152613bc181613278565b9050919050565b60006020820190508181036000830152613be1816132de565b9050919050565b60006020820190508181036000830152613c0181613344565b9050919050565b60006020820190508181036000830152613c21816133ea565b9050919050565b60006020820190508181036000830152613c418161342a565b9050919050565b60006020820190508181036000830152613c6181613490565b9050919050565b60006020820190508181036000830152613c81816134f6565b9050919050565b60006020820190508181036000830152613ca18161355c565b9050919050565b60006020820190508181036000830152613cc181613602565b9050919050565b60006020820190508181036000830152613ce1816136e8565b9050919050565b6000602082019050613cfd60008301846137da565b92915050565b6000604082019050613d1860008301856137da565b8181036020830152613d2a8184612d9f565b90509392505050565b6000604051905081810181811067ffffffffffffffff82111715613d5a57613d5961413a565b5b8060405250919050565b600067ffffffffffffffff821115613d7f57613d7e61413a565b5b601f19601f8301169050602081019050919050565b6000819050602082019050919050565b60008190508160005260206000209050919050565b600081519050919050565b600081519050919050565b600081519050919050565b6000602082019050919050565b600082825260208201905092915050565b600082825260208201905092915050565b600082825260208201905092915050565b600082825260208201905092915050565b600081905092915050565b6000613e4182613fb5565b9150613e4c83613fb5565b9250827fffffffffffffffffffffffffffffffffffffffffffffffffffffffffffffffff03821115613e8157613e806140ad565b5b828201905092915050565b6000613e9782613fb5565b9150613ea283613fb5565b925082613eb257613eb16140dc565b5b828204905092915050565b6000613ec882613fb5565b9150613ed383613fb5565b9250817fffffffffffffffffffffffffffffffffffffffffffffffffffffffffffffffff0483118215151615613f0c57613f0b6140ad565b5b828202905092915050565b6000613f2282613fb5565b9150613f2d83613fb5565b925082821015613f4057613f3f6140ad565b5b828203905092915050565b6000613f5682613f95565b9050919050565b60008115159050919050565b60007fffffffff0000000000000000000000000000000000000000000000000000000082169050919050565b600073ffffffffffffffffffffffffffffffffffffffff82169050919050565b6000819050919050565b82818337600083830152505050565b60005b83811015613fec578082015181840152602081019050613fd1565b83811115613ffb576000848401525b50505050565b6000600282049050600182168061401957607f821691505b6020821081141561402d5761402c61410b565b5b50919050565b600061403e82613fb5565b91507fffffffffffffffffffffffffffffffffffffffffffffffffffffffffffffffff821415614071576140706140ad565b5b600182019050919050565b600061408782613fb5565b915061409283613fb5565b9250826140a2576140a16140dc565b5b828206905092915050565b7f4e487b7100000000000000000000000000000000000000000000000000000000600052601160045260246000fd5b7f4e487b7100000000000000000000000000000000000000000000000000000000600052601260045260246000fd5b7f4e487b7100000000000000000000000000000000000000000000000000000000600052602260045260246000fd5b7f4e487b7100000000000000000000000000000000000000000000000000000000600052604160045260246000fd5b6000601f19601f8301169050919050565b61418381613f4b565b811461418e57600080fd5b50565b61419a81613f5d565b81146141a557600080fd5b50565b6141b181613f69565b81146141bc57600080fd5b50565b6141c881613fb5565b81146141d357600080fd5b5056fe416e204e465420772f20494420257320686173206265656e206d696e74656420746f2025734142434445464748494a4b4c4d4e4f505152535455565758595a6162636465666768696a6b6c6d6e6f707172737475767778797a303132333435363738392b2fa264697066735822122016bb1a54d944e08c960b0956b10f0dcdbdb2ed8b4d74030931c51e3486f1951964736f6c634300080000333c73766720786d6c6e733d27687474703a2f2f7777772e77332e6f72672f323030302f73766727207072657365727665417370656374526174696f3d27784d696e594d696e206d656574272076696577426f783d273020302033353020333530273e3c7374796c653e2e62617365207b2066696c6c3a2077686974653b20666f6e742d66616d696c793a2073657269663b20666f6e742d73697a653a20323470783b207d3c2f7374796c653e3c726563742077696474683d273130302527206865696768743d2731303025272066696c6c3d27272f3e3c7465787420783d273530252720793d273530252720636c6173733d27626173652720646f6d696e616e742d626173656c696e653d276d6964646c652720746578742d616e63686f723d276d6964646c65273e",
  "linkReferences": {},
  "deployedLinkReferences": {}
}