{
  "_format": "hh-sol-artifact-1",
  "contractName": "MyEpicNFT",
  "sourceName": "contracts/MyEpicNFT.sol",
  "abi": [
    {
      "inputs": [],
      "stateMutability": "nonpayable",
      "type": "constructor"
    },
    {
      "anonymous": false,
      "inputs": [
        {
          "indexed": true,
          "internalType": "address",
          "name": "owner",
          "type": "address"
        },
        {
          "indexed": true,
          "internalType": "address",
          "name": "approved",
          "type": "address"
        },
        {
          "indexed": true,
          "internalType": "uint256",
          "name": "tokenId",
          "type": "uint256"
        }
      ],
      "name": "Approval",
      "type": "event"
    },
    {
      "anonymous": false,
      "inputs": [
        {
          "indexed": true,
          "internalType": "address",
          "name": "owner",
          "type": "address"
        },
        {
          "indexed": true,
          "internalType": "address",
          "name": "operator",
          "type": "address"
        },
        {
          "indexed": false,
          "internalType": "bool",
          "name": "approved",
          "type": "bool"
        }
      ],
      "name": "ApprovalForAll",
      "type": "event"
    },
    {
      "anonymous": false,
      "inputs": [
        {
          "indexed": false,
          "internalType": "address",
          "name": "sender",
          "type": "address"
        },
        {
          "indexed": false,
          "internalType": "string",
          "name": "message",
          "type": "string"
        }
      ],
      "name": "MintError",
      "type": "event"
    },
    {
      "anonymous": false,
      "inputs": [
        {
          "indexed": false,
          "internalType": "address",
          "name": "sender",
          "type": "address"
        },
        {
          "indexed": false,
          "internalType": "uint256",
          "name": "tokenId",
          "type": "uint256"
        }
      ],
      "name": "NewEpicNFTMinted",
      "type": "event"
    },
    {
      "anonymous": false,
      "inputs": [
        {
          "indexed": true,
          "internalType": "address",
          "name": "from",
          "type": "address"
        },
        {
          "indexed": true,
          "internalType": "address",
          "name": "to",
          "type": "address"
        },
        {
          "indexed": true,
          "internalType": "uint256",
          "name": "tokenId",
          "type": "uint256"
        }
      ],
      "name": "Transfer",
      "type": "event"
    },
    {
      "inputs": [
        {
          "internalType": "address",
          "name": "to",
          "type": "address"
        },
        {
          "internalType": "uint256",
          "name": "tokenId",
          "type": "uint256"
        }
      ],
      "name": "approve",
      "outputs": [],
      "stateMutability": "nonpayable",
      "type": "function"
    },
    {
      "inputs": [
        {
          "internalType": "address",
          "name": "owner",
          "type": "address"
        }
      ],
      "name": "balanceOf",
      "outputs": [
        {
          "internalType": "uint256",
          "name": "",
          "type": "uint256"
        }
      ],
      "stateMutability": "view",
      "type": "function"
    },
    {
      "inputs": [
        {
          "internalType": "uint256",
          "name": "tokenId",
          "type": "uint256"
        }
      ],
      "name": "getApproved",
      "outputs": [
        {
          "internalType": "address",
          "name": "",
          "type": "address"
        }
      ],
      "stateMutability": "view",
      "type": "function"
    },
    {
      "inputs": [],
      "name": "getTotalNFTsMintedSoFar",
      "outputs": [
        {
          "internalType": "uint256",
          "name": "",
          "type": "uint256"
        }
      ],
      "stateMutability": "view",
      "type": "function"
    },
    {
      "inputs": [
        {
          "internalType": "address",
          "name": "owner",
          "type": "address"
        },
        {
          "internalType": "address",
          "name": "operator",
          "type": "address"
        }
      ],
      "name": "isApprovedForAll",
      "outputs": [
        {
          "internalType": "bool",
          "name": "",
          "type": "bool"
        }
      ],
      "stateMutability": "view",
      "type": "function"
    },
    {
      "inputs": [],
      "name": "makeAnEpicNFT",
      "outputs": [],
      "stateMutability": "nonpayable",
      "type": "function"
    },
    {
      "inputs": [],
      "name": "name",
      "outputs": [
        {
          "internalType": "string",
          "name": "",
          "type": "string"
        }
      ],
      "stateMutability": "view",
      "type": "function"
    },
    {
      "inputs": [
        {
          "internalType": "uint256",
          "name": "tokenId",
          "type": "uint256"
        }
      ],
      "name": "ownerOf",
      "outputs": [
        {
          "internalType": "address",
          "name": "",
          "type": "address"
        }
      ],
      "stateMutability": "view",
      "type": "function"
    },
    {
      "inputs": [
        {
          "internalType": "uint256",
          "name": "tokenId",
          "type": "uint256"
        }
      ],
      "name": "pickRandomColor",
      "outputs": [
        {
          "internalType": "string",
          "name": "",
          "type": "string"
        }
      ],
      "stateMutability": "view",
      "type": "function"
    },
    {
      "inputs": [
        {
          "internalType": "uint256",
          "name": "tokenId",
          "type": "uint256"
        }
      ],
      "name": "pickRandomFirstWord",
      "outputs": [
        {
          "internalType": "string",
          "name": "",
          "type": "string"
        }
      ],
      "stateMutability": "view",
      "type": "function"
    },
    {
      "inputs": [
        {
          "internalType": "uint256",
          "name": "tokenId",
          "type": "uint256"
        }
      ],
      "name": "pickRandomSecondWord",
      "outputs": [
        {
          "internalType": "string",
          "name": "",
          "type": "string"
        }
      ],
      "stateMutability": "view",
      "type": "function"
    },
    {
      "inputs": [
        {
          "internalType": "uint256",
          "name": "tokenId",
          "type": "uint256"
        }
      ],
      "name": "pickRandomThirdWord",
      "outputs": [
        {
          "internalType": "string",
          "name": "",
          "type": "string"
        }
      ],
      "stateMutability": "view",
      "type": "function"
    },
    {
      "inputs": [
        {
          "internalType": "address",
          "name": "from",
          "type": "address"
        },
        {
          "internalType": "address",
          "name": "to",
          "type": "address"
        },
        {
          "internalType": "uint256",
          "name": "tokenId",
          "type": "uint256"
        }
      ],
      "name": "safeTransferFrom",
      "outputs": [],
      "stateMutability": "nonpayable",
      "type": "function"
    },
    {
      "inputs": [
        {
          "internalType": "address",
          "name": "from",
          "type": "address"
        },
        {
          "internalType": "address",
          "name": "to",
          "type": "address"
        },
        {
          "internalType": "uint256",
          "name": "tokenId",
          "type": "uint256"
        },
        {
          "internalType": "bytes",
          "name": "_data",
          "type": "bytes"
        }
      ],
      "name": "safeTransferFrom",
      "outputs": [],
      "stateMutability": "nonpayable",
      "type": "function"
    },
    {
      "inputs": [
        {
          "internalType": "address",
          "name": "operator",
          "type": "address"
        },
        {
          "internalType": "bool",
          "name": "approved",
          "type": "bool"
        }
      ],
      "name": "setApprovalForAll",
      "outputs": [],
      "stateMutability": "nonpayable",
      "type": "function"
    },
    {
      "inputs": [
        {
          "internalType": "bytes4",
          "name": "interfaceId",
          "type": "bytes4"
        }
      ],
      "name": "supportsInterface",
      "outputs": [
        {
          "internalType": "bool",
          "name": "",
          "type": "bool"
        }
      ],
      "stateMutability": "view",
      "type": "function"
    },
    {
      "inputs": [],
      "name": "symbol",
      "outputs": [
        {
          "internalType": "string",
          "name": "",
          "type": "string"
        }
      ],
      "stateMutability": "view",
      "type": "function"
    },
    {
      "inputs": [
        {
          "internalType": "uint256",
          "name": "tokenId",
          "type": "uint256"
        }
      ],
      "name": "tokenURI",
      "outputs": [
        {
          "internalType": "string",
          "name": "",
          "type": "string"
        }
      ],
      "stateMutability": "view",
      "type": "function"
    },
    {
      "inputs": [
        {
          "internalType": "address",
          "name": "from",
          "type": "address"
        },
        {
          "internalType": "address",
          "name": "to",
          "type": "address"
        },
        {
          "internalType": "uint256",
          "name": "tokenId",
          "type": "uint256"
        }
      ],
      "name": "transferFrom",
      "outputs": [],
      "stateMutability": "nonpayable",
      "type": "function"
    }
  ],
  "bytecode": "0x608060405260405180610100016040528060d381526020016200473360d391396008908051906020019062000036929190620008a3565b5060405180608001604052806056815260200162004806605691396009908051906020019062000068929190620008a3565b506040518061010001604052806040518060400160405280600681526020017f534953544552000000000000000000000000000000000000000000000000000081525081526020016040518060400160405280600781526020017f42524f544845520000000000000000000000000000000000000000000000000081525081526020016040518060400160405280600681526020017f464154484552000000000000000000000000000000000000000000000000000081525081526020016040518060400160405280600681526020017f4d4f54484552000000000000000000000000000000000000000000000000000081525081526020016040518060400160405280600681526020017f434f5553494e000000000000000000000000000000000000000000000000000081525081526020016040518060400160405280600b81526020017f4752414e444d4f5448455200000000000000000000000000000000000000000081525081526020016040518060400160405280600581526020017f4e4945434500000000000000000000000000000000000000000000000000000081525081526020016040518060400160405280600681526020017f4e45504845570000000000000000000000000000000000000000000000000000815250815250600a9060086200025d92919062000934565b506040518060c001604052806040518060400160405280600281526020017f495300000000000000000000000000000000000000000000000000000000000081525081526020016040518060400160405280600381526020017f574153000000000000000000000000000000000000000000000000000000000081525081526020016040518060400160405280600381526020017f415245000000000000000000000000000000000000000000000000000000000081525081526020016040518060400160405280600381526020017f574552000000000000000000000000000000000000000000000000000000000081525081526020016040518060400160405280600581526020017f574f554c4400000000000000000000000000000000000000000000000000000081525081526020016040518060400160405280600481526020017f57494c4c00000000000000000000000000000000000000000000000000000000815250815250600b906006620003db9291906200099b565b506040518060c001604052806040518060400160405280600481526020017f46494e450000000000000000000000000000000000000000000000000000000081525081526020016040518060400160405280600581526020017f484150505900000000000000000000000000000000000000000000000000000081525081526020016040518060400160405280600381526020017f534144000000000000000000000000000000000000000000000000000000000081525081526020016040518060400160405280600581526020017f534f52525900000000000000000000000000000000000000000000000000000081525081526020016040518060400160405280600581526020017f414e47525900000000000000000000000000000000000000000000000000000081525081526020016040518060400160405280600381526020017f4d41440000000000000000000000000000000000000000000000000000000000815250815250600c906006620005599291906200099b565b506040518060c001604052806040518060400160405280600381526020017f726564000000000000000000000000000000000000000000000000000000000081525081526020016040518060400160405280600781526020017f233038433241380000000000000000000000000000000000000000000000000081525081526020016040518060400160405280600581526020017f626c61636b00000000000000000000000000000000000000000000000000000081525081526020016040518060400160405280600681526020017f79656c6c6f77000000000000000000000000000000000000000000000000000081525081526020016040518060400160405280600481526020017f626c75650000000000000000000000000000000000000000000000000000000081525081526020016040518060400160405280600581526020017f677265656e000000000000000000000000000000000000000000000000000000815250815250600d906006620006d79291906200099b565b50348015620006e557600080fd5b506040518060400160405280600981526020017f5371756172654e465400000000000000000000000000000000000000000000008152506040518060400160405280600681526020017f535155415245000000000000000000000000000000000000000000000000000081525081600090805190602001906200076a929190620008a3565b50806001908051906020019062000783929190620008a3565b505050620007d16040518060400160405280601e81526020017f54686973206973206d79204e465420636f6e74726163742e20576f6168210000815250620007d760201b620012ab1760201c565b62000bbc565b6200087781604051602401620007ee919062000ad0565b6040516020818303038152906040527f41304fac000000000000000000000000000000000000000000000000000000007bffffffffffffffffffffffffffffffffffffffffffffffffffffffff19166020820180517bffffffffffffffffffffffffffffffffffffffffffffffffffffffff83818316178352505050506200087a60201b60201c565b50565b60008151905060006a636f6e736f6c652e6c6f679050602083016000808483855afa5050505050565b828054620008b19062000b46565b90600052602060002090601f016020900481019282620008d5576000855562000921565b82601f10620008f057805160ff191683800117855562000921565b8280016001018555821562000921579182015b828111156200092057825182559160200191906001019062000903565b5b50905062000930919062000a02565b5090565b82805482825590600052602060002090810192821562000988579160200282015b828111156200098757825182908051906020019062000976929190620008a3565b509160200191906001019062000955565b5b50905062000997919062000a21565b5090565b828054828255906000526020600020908101928215620009ef579160200282015b82811115620009ee578251829080519060200190620009dd929190620008a3565b5091602001919060010190620009bc565b5b509050620009fe919062000a21565b5090565b5b8082111562000a1d57600081600090555060010162000a03565b5090565b5b8082111562000a45576000818162000a3b919062000a49565b5060010162000a22565b5090565b50805462000a579062000b46565b6000825580601f1062000a6b575062000a8c565b601f01602090049060005260206000209081019062000a8b919062000a02565b5b50565b600062000a9c8262000af4565b62000aa8818562000aff565b935062000aba81856020860162000b10565b62000ac58162000bab565b840191505092915050565b6000602082019050818103600083015262000aec818462000a8f565b905092915050565b600081519050919050565b600082825260208201905092915050565b60005b8381101562000b3057808201518184015260208101905062000b13565b8381111562000b40576000848401525b50505050565b6000600282049050600182168062000b5f57607f821691505b6020821081141562000b765762000b7562000b7c565b5b50919050565b7f4e487b7100000000000000000000000000000000000000000000000000000000600052602260045260246000fd5b6000601f19601f8301169050919050565b613b678062000bcc6000396000f3fe608060405234801561001057600080fd5b50600436106101215760003560e01c80636352211e116100ad578063b88d4fde11610071578063b88d4fde14610340578063c575757a1461035c578063c87b56dd1461038c578063de9d132f146103bc578063e985e9c5146103c657610121565b80636352211e1461027657806370a08231146102a657806395d89b41146102d6578063a22cb465146102f4578063b187301f1461031057610121565b8063095ea7b3116100f4578063095ea7b3146101c257806323b872dd146101de5780632de38d68146101fa57806342842e0e1461022a578063514dc8c61461024657610121565b806301ffc9a714610126578063060475901461015657806306fdde0314610174578063081812fc14610192575b600080fd5b610140600480360381019061013b91906126ab565b6103f6565b60405161014d91906133dd565b60405180910390f35b61015e6104d8565b60405161016b9190613658565b60405180910390f35b61017c6104e9565b60405161018991906133f8565b60405180910390f35b6101ac60048036038101906101a791906126fd565b61057b565b6040516101b9919061331f565b60405180910390f35b6101dc60048036038101906101d7919061266f565b610600565b005b6101f860048036038101906101f39190612569565b610718565b005b610214600480360381019061020f91906126fd565b610778565b60405161022191906133f8565b60405180910390f35b610244600480360381019061023f9190612569565b610896565b005b610260600480360381019061025b91906126fd565b6108b6565b60405161026d91906133f8565b60405180910390f35b610290600480360381019061028b91906126fd565b6109d4565b60405161029d919061331f565b60405180910390f35b6102c060048036038101906102bb9190612504565b610a86565b6040516102cd9190613658565b60405180910390f35b6102de610b3e565b6040516102eb91906133f8565b60405180910390f35b61030e60048036038101906103099190612633565b610bd0565b005b61032a600480360381019061032591906126fd565b610be6565b60405161033791906133f8565b60405180910390f35b61035a600480360381019061035591906125b8565b610d04565b005b610376600480360381019061037191906126fd565b610d66565b60405161038391906133f8565b60405180910390f35b6103a660048036038101906103a191906126fd565b610e84565b6040516103b391906133f8565b60405180910390f35b6103c4610fd6565b005b6103e060048036038101906103db919061252d565b611217565b6040516103ed91906133dd565b60405180910390f35b60007f80ac58cd000000000000000000000000000000000000000000000000000000007bffffffffffffffffffffffffffffffffffffffffffffffffffffffff1916827bffffffffffffffffffffffffffffffffffffffffffffffffffffffff191614806104c157507f5b5e139f000000000000000000000000000000000000000000000000000000007bffffffffffffffffffffffffffffffffffffffffffffffffffffffff1916827bffffffffffffffffffffffffffffffffffffffffffffffffffffffff1916145b806104d157506104d082611344565b5b9050919050565b60006104e460076113ae565b905090565b6060600080546104f8906138f7565b80601f0160208091040260200160405190810160405280929190818152602001828054610524906138f7565b80156105715780601f1061054657610100808354040283529160200191610571565b820191906000526020600020905b81548152906001019060200180831161055457829003601f168201915b5050505050905090565b6000610586826113bc565b6105c5576040517f08c379a00000000000000000000000000000000000000000000000000000000081526004016105bc906135b8565b60405180910390fd5b6004600083815260200190815260200160002060009054906101000a900473ffffffffffffffffffffffffffffffffffffffff169050919050565b600061060b826109d4565b90508073ffffffffffffffffffffffffffffffffffffffff168373ffffffffffffffffffffffffffffffffffffffff16141561067c576040517f08c379a000000000000000000000000000000000000000000000000000000000815260040161067390613618565b60405180910390fd5b8073ffffffffffffffffffffffffffffffffffffffff1661069b611428565b73ffffffffffffffffffffffffffffffffffffffff1614806106ca57506106c9816106c4611428565b611217565b5b610709576040517f08c379a0000000000000000000000000000000000000000000000000000000008152600401610700906134f8565b60405180910390fd5b6107138383611430565b505050565b610729610723611428565b826114e9565b610768576040517f08c379a000000000000000000000000000000000000000000000000000000000815260040161075f90613638565b60405180910390fd5b6107738383836115c7565b505050565b606060006107ac61078884611823565b60405160200161079891906132b9565b6040516020818303038152906040526119d0565b9050600a80549050816107bf9190613972565b9050600a81815481106107fb577f4e487b7100000000000000000000000000000000000000000000000000000000600052603260045260246000fd5b906000526020600020018054610810906138f7565b80601f016020809104026020016040519081016040528092919081815260200182805461083c906138f7565b80156108895780601f1061085e57610100808354040283529160200191610889565b820191906000526020600020905b81548152906001019060200180831161086c57829003601f168201915b5050505050915050919050565b6108b183838360405180602001604052806000815250610d04565b505050565b606060006108ea6108c684611823565b6040516020016108d691906132fd565b6040516020818303038152906040526119d0565b9050600d80549050816108fd9190613972565b9050600d8181548110610939577f4e487b7100000000000000000000000000000000000000000000000000000000600052603260045260246000fd5b90600052602060002001805461094e906138f7565b80601f016020809104026020016040519081016040528092919081815260200182805461097a906138f7565b80156109c75780601f1061099c576101008083540402835291602001916109c7565b820191906000526020600020905b8154815290600101906020018083116109aa57829003601f168201915b5050505050915050919050565b6000806002600084815260200190815260200160002060009054906101000a900473ffffffffffffffffffffffffffffffffffffffff169050600073ffffffffffffffffffffffffffffffffffffffff168173ffffffffffffffffffffffffffffffffffffffff161415610a7d576040517f08c379a0000000000000000000000000000000000000000000000000000000008152600401610a7490613538565b60405180910390fd5b80915050919050565b60008073ffffffffffffffffffffffffffffffffffffffff168273ffffffffffffffffffffffffffffffffffffffff161415610af7576040517f08c379a0000000000000000000000000000000000000000000000000000000008152600401610aee90613518565b60405180910390fd5b600360008373ffffffffffffffffffffffffffffffffffffffff1673ffffffffffffffffffffffffffffffffffffffff168152602001908152602001600020549050919050565b606060018054610b4d906138f7565b80601f0160208091040260200160405190810160405280929190818152602001828054610b79906138f7565b8015610bc65780601f10610b9b57610100808354040283529160200191610bc6565b820191906000526020600020905b815481529060010190602001808311610ba957829003601f168201915b5050505050905090565b610be2610bdb611428565b8383611a03565b5050565b60606000610c1a610bf684611823565b604051602001610c069190613252565b6040516020818303038152906040526119d0565b9050600b8054905081610c2d9190613972565b9050600b8181548110610c69577f4e487b7100000000000000000000000000000000000000000000000000000000600052603260045260246000fd5b906000526020600020018054610c7e906138f7565b80601f0160208091040260200160405190810160405280929190818152602001828054610caa906138f7565b8015610cf75780601f10610ccc57610100808354040283529160200191610cf7565b820191906000526020600020905b815481529060010190602001808311610cda57829003601f168201915b5050505050915050919050565b610d15610d0f611428565b836114e9565b610d54576040517f08c379a0000000000000000000000000000000000000000000000000000000008152600401610d4b90613638565b60405180910390fd5b610d6084848484611b70565b50505050565b60606000610d9a610d7684611823565b604051602001610d869190613230565b6040516020818303038152906040526119d0565b9050600c8054905081610dad9190613972565b9050600c8181548110610de9577f4e487b7100000000000000000000000000000000000000000000000000000000600052603260045260246000fd5b906000526020600020018054610dfe906138f7565b80601f0160208091040260200160405190810160405280929190818152602001828054610e2a906138f7565b8015610e775780601f10610e4c57610100808354040283529160200191610e77565b820191906000526020600020905b815481529060010190602001808311610e5a57829003601f168201915b5050505050915050919050565b6060610e8f826113bc565b610ece576040517f08c379a0000000000000000000000000000000000000000000000000000000008152600401610ec590613598565b60405180910390fd5b6000600660008481526020019081526020016000208054610eee906138f7565b80601f0160208091040260200160405190810160405280929190818152602001828054610f1a906138f7565b8015610f675780601f10610f3c57610100808354040283529160200191610f67565b820191906000526020600020905b815481529060010190602001808311610f4a57829003601f168201915b505050505090506000610f78611bcc565b9050600081511415610f8e578192505050610fd1565b600082511115610fc3578082604051602001610fab929190613192565b60405160208183030381529060405292505050610fd1565b610fcc84611be3565b925050505b919050565b6000610fe260076113ae565b9050603281111561102a577f2bfe6142b1725250de0c4fe1ae61a85b3872a0c7cb966edec89ee1f49bad37783360405161101c9190613386565b60405180910390a150611215565b600061103582610778565b9050600061104283610be6565b9050600061104f84610d66565b90506000838383604051602001611068939291906131b6565b60405160208183030381529060405290506000611084866108b6565b905060006008826009856040516020016110a194939291906131e7565b604051602081830303815290604052905060006110e6846110c184611c8a565b6040516020016110d2929190613274565b604051602081830303815290604052611c8a565b90506000816040516020016110fb91906132db565b604051602081830303815290604052905061114a6040518060400160405280601581526020017f0a2d2d2d2d2d2d2d2d2d2d2d2d2d2d2d2d2d2d2d2d00000000000000000000008152506112ab565b611153816112ab565b6111916040518060400160405280601581526020017f2d2d2d2d2d2d2d2d2d2d2d2d2d2d2d2d2d2d2d2d0a00000000000000000000008152506112ab565b61119b338a611e48565b6111a58982611e66565b6111af6007611eda565b6111d2604051806060016040528060258152602001613acd602591398a33611ef0565b7febb98688741ffa4c7589bf325de30cf7becb63de567842e1ccdb6cb949fdc82c338a6040516112039291906133b4565b60405180910390a15050505050505050505b565b6000600560008473ffffffffffffffffffffffffffffffffffffffff1673ffffffffffffffffffffffffffffffffffffffff16815260200190815260200160002060008373ffffffffffffffffffffffffffffffffffffffff1673ffffffffffffffffffffffffffffffffffffffff16815260200190815260200160002060009054906101000a900460ff16905092915050565b611341816040516024016112bf91906133f8565b6040516020818303038152906040527f41304fac000000000000000000000000000000000000000000000000000000007bffffffffffffffffffffffffffffffffffffffffffffffffffffffff19166020820180517bffffffffffffffffffffffffffffffffffffffffffffffffffffffff8381831617835250505050611f8f565b50565b60007f01ffc9a7000000000000000000000000000000000000000000000000000000007bffffffffffffffffffffffffffffffffffffffffffffffffffffffff1916827bffffffffffffffffffffffffffffffffffffffffffffffffffffffff1916149050919050565b600081600001549050919050565b60008073ffffffffffffffffffffffffffffffffffffffff166002600084815260200190815260200160002060009054906101000a900473ffffffffffffffffffffffffffffffffffffffff1673ffffffffffffffffffffffffffffffffffffffff1614159050919050565b600033905090565b816004600083815260200190815260200160002060006101000a81548173ffffffffffffffffffffffffffffffffffffffff021916908373ffffffffffffffffffffffffffffffffffffffff160217905550808273ffffffffffffffffffffffffffffffffffffffff166114a3836109d4565b73ffffffffffffffffffffffffffffffffffffffff167f8c5be1e5ebec7d5bd14f71427d1e84f3dd0314c0f7b2291e5b200ac8c7c3b92560405160405180910390a45050565b60006114f4826113bc565b611533576040517f08c379a000000000000000000000000000000000000000000000000000000000815260040161152a906134d8565b60405180910390fd5b600061153e836109d4565b90508073ffffffffffffffffffffffffffffffffffffffff168473ffffffffffffffffffffffffffffffffffffffff1614806115ad57508373ffffffffffffffffffffffffffffffffffffffff166115958461057b565b73ffffffffffffffffffffffffffffffffffffffff16145b806115be57506115bd8185611217565b5b91505092915050565b8273ffffffffffffffffffffffffffffffffffffffff166115e7826109d4565b73ffffffffffffffffffffffffffffffffffffffff161461163d576040517f08c379a0000000000000000000000000000000000000000000000000000000008152600401611634906135d8565b60405180910390fd5b600073ffffffffffffffffffffffffffffffffffffffff168273ffffffffffffffffffffffffffffffffffffffff1614156116ad576040517f08c379a00000000000000000000000000000000000000000000000000000000081526004016116a490613498565b60405180910390fd5b6116b8838383611fb8565b6116c3600082611430565b6001600360008573ffffffffffffffffffffffffffffffffffffffff1673ffffffffffffffffffffffffffffffffffffffff1681526020019081526020016000206000828254611713919061380d565b925050819055506001600360008473ffffffffffffffffffffffffffffffffffffffff1673ffffffffffffffffffffffffffffffffffffffff168152602001908152602001600020600082825461176a919061372c565b92505081905550816002600083815260200190815260200160002060006101000a81548173ffffffffffffffffffffffffffffffffffffffff021916908373ffffffffffffffffffffffffffffffffffffffff160217905550808273ffffffffffffffffffffffffffffffffffffffff168473ffffffffffffffffffffffffffffffffffffffff167fddf252ad1be2c89b69c2b068fc378daa952ba7f163c4a11628f55a4df523b3ef60405160405180910390a4505050565b6060600082141561186b576040518060400160405280600181526020017f300000000000000000000000000000000000000000000000000000000000000081525090506119cb565b600082905060005b6000821461189d57808061188690613929565b915050600a826118969190613782565b9150611873565b60008167ffffffffffffffff8111156118df577f4e487b7100000000000000000000000000000000000000000000000000000000600052604160045260246000fd5b6040519080825280601f01601f1916602001820160405280156119115781602001600182028036833780820191505090505b5090505b600085146119c45760018261192a919061380d565b9150600a856119399190613972565b6030611945919061372c565b60f81b818381518110611981577f4e487b7100000000000000000000000000000000000000000000000000000000600052603260045260246000fd5b60200101907effffffffffffffffffffffffffffffffffffffffffffffffffffffffffffff1916908160001a905350600a856119bd9190613782565b9450611915565b8093505050505b919050565b6000816040516020016119e3919061317b565b6040516020818303038152906040528051906020012060001c9050919050565b8173ffffffffffffffffffffffffffffffffffffffff168373ffffffffffffffffffffffffffffffffffffffff161415611a72576040517f08c379a0000000000000000000000000000000000000000000000000000000008152600401611a69906134b8565b60405180910390fd5b80600560008573ffffffffffffffffffffffffffffffffffffffff1673ffffffffffffffffffffffffffffffffffffffff16815260200190815260200160002060008473ffffffffffffffffffffffffffffffffffffffff1673ffffffffffffffffffffffffffffffffffffffff16815260200190815260200160002060006101000a81548160ff0219169083151502179055508173ffffffffffffffffffffffffffffffffffffffff168373ffffffffffffffffffffffffffffffffffffffff167f17307eab39ab6107e8899845ad3d59bd9653f200f220920489ca2b5937696c3183604051611b6391906133dd565b60405180910390a3505050565b611b7b8484846115c7565b611b8784848484611fbd565b611bc6576040517f08c379a0000000000000000000000000000000000000000000000000000000008152600401611bbd90613458565b60405180910390fd5b50505050565b606060405180602001604052806000815250905090565b6060611bee826113bc565b611c2d576040517f08c379a0000000000000000000000000000000000000000000000000000000008152600401611c24906135f8565b60405180910390fd5b6000611c37611bcc565b90506000815111611c575760405180602001604052806000815250611c82565b80611c6184611823565b604051602001611c72929190613192565b6040516020818303038152906040525b915050919050565b60606000825190506000811415611cb35760405180602001604052806000815250915050611e43565b60006003600283611cc4919061372c565b611cce9190613782565b6004611cda91906137b3565b90506000602082611ceb919061372c565b67ffffffffffffffff811115611d2a577f4e487b7100000000000000000000000000000000000000000000000000000000600052604160045260246000fd5b6040519080825280601f01601f191660200182016040528015611d5c5781602001600182028036833780820191505090505b5090506000604051806060016040528060408152602001613af2604091399050600181016020830160005b86811015611e005760038101905062ffffff818a015116603f8160121c168401518060081b905060ff603f83600c1c1686015116810190508060081b905060ff603f8360061c1686015116810190508060081b905060ff603f831686015116810190508060e01b90508084526004840193505050611d87565b506003860660018114611e1a5760028114611e2a57611e35565b613d3d60f01b6002830352611e35565b603d60f81b60018303525b508484525050819450505050505b919050565b611e62828260405180602001604052806000815250612154565b5050565b611e6f826113bc565b611eae576040517f08c379a0000000000000000000000000000000000000000000000000000000008152600401611ea590613558565b60405180910390fd5b80600660008481526020019081526020016000209080519060200190611ed5929190612390565b505050565b6001816000016000828254019250508190555050565b611f8a838383604051602401611f089392919061341a565b6040516020818303038152906040527fe3849f79000000000000000000000000000000000000000000000000000000007bffffffffffffffffffffffffffffffffffffffffffffffffffffffff19166020820180517bffffffffffffffffffffffffffffffffffffffffffffffffffffffff8381831617835250505050611f8f565b505050565b60008151905060006a636f6e736f6c652e6c6f679050602083016000808483855afa5050505050565b505050565b6000611fde8473ffffffffffffffffffffffffffffffffffffffff166121af565b15612147578373ffffffffffffffffffffffffffffffffffffffff1663150b7a02612007611428565b8786866040518563ffffffff1660e01b8152600401612029949392919061333a565b602060405180830381600087803b15801561204357600080fd5b505af192505050801561207457506040513d601f19601f8201168201806040525081019061207191906126d4565b60015b6120f7573d80600081146120a4576040519150601f19603f3d011682016040523d82523d6000602084013e6120a9565b606091505b506000815114156120ef576040517f08c379a00000000000000000000000000000000000000000000000000000000081526004016120e690613458565b60405180910390fd5b805181602001fd5b63150b7a0260e01b7bffffffffffffffffffffffffffffffffffffffffffffffffffffffff1916817bffffffffffffffffffffffffffffffffffffffffffffffffffffffff19161491505061214c565b600190505b949350505050565b61215e83836121c2565b61216b6000848484611fbd565b6121aa576040517f08c379a00000000000000000000000000000000000000000000000000000000081526004016121a190613458565b60405180910390fd5b505050565b600080823b905060008111915050919050565b600073ffffffffffffffffffffffffffffffffffffffff168273ffffffffffffffffffffffffffffffffffffffff161415612232576040517f08c379a000000000000000000000000000000000000000000000000000000000815260040161222990613578565b60405180910390fd5b61223b816113bc565b1561227b576040517f08c379a000000000000000000000000000000000000000000000000000000000815260040161227290613478565b60405180910390fd5b61228760008383611fb8565b6001600360008473ffffffffffffffffffffffffffffffffffffffff1673ffffffffffffffffffffffffffffffffffffffff16815260200190815260200160002060008282546122d7919061372c565b92505081905550816002600083815260200190815260200160002060006101000a81548173ffffffffffffffffffffffffffffffffffffffff021916908373ffffffffffffffffffffffffffffffffffffffff160217905550808273ffffffffffffffffffffffffffffffffffffffff16600073ffffffffffffffffffffffffffffffffffffffff167fddf252ad1be2c89b69c2b068fc378daa952ba7f163c4a11628f55a4df523b3ef60405160405180910390a45050565b82805461239c906138f7565b90600052602060002090601f0160209004810192826123be5760008555612405565b82601f106123d757805160ff1916838001178555612405565b82800160010185558215612405579182015b828111156124045782518255916020019190600101906123e9565b5b5090506124129190612416565b5090565b5b8082111561242f576000816000905550600101612417565b5090565b6000612446612441846136a4565b613673565b90508281526020810184848401111561245e57600080fd5b6124698482856138b5565b509392505050565b60008135905061248081613a70565b92915050565b60008135905061249581613a87565b92915050565b6000813590506124aa81613a9e565b92915050565b6000815190506124bf81613a9e565b92915050565b600082601f8301126124d657600080fd5b81356124e6848260208601612433565b91505092915050565b6000813590506124fe81613ab5565b92915050565b60006020828403121561251657600080fd5b600061252484828501612471565b91505092915050565b6000806040838503121561254057600080fd5b600061254e85828601612471565b925050602061255f85828601612471565b9150509250929050565b60008060006060848603121561257e57600080fd5b600061258c86828701612471565b935050602061259d86828701612471565b92505060406125ae868287016124ef565b9150509250925092565b600080600080608085870312156125ce57600080fd5b60006125dc87828801612471565b94505060206125ed87828801612471565b93505060406125fe878288016124ef565b925050606085013567ffffffffffffffff81111561261b57600080fd5b612627878288016124c5565b91505092959194509250565b6000806040838503121561264657600080fd5b600061265485828601612471565b925050602061266585828601612486565b9150509250929050565b6000806040838503121561268257600080fd5b600061269085828601612471565b92505060206126a1858286016124ef565b9150509250929050565b6000602082840312156126bd57600080fd5b60006126cb8482850161249b565b91505092915050565b6000602082840312156126e657600080fd5b60006126f4848285016124b0565b91505092915050565b60006020828403121561270f57600080fd5b600061271d848285016124ef565b91505092915050565b61272f81613841565b82525050565b61273e81613853565b82525050565b600061274f826136e9565b61275981856136ff565b93506127698185602086016138c4565b61277281613a5f565b840191505092915050565b6000612788826136f4565b6127928185613710565b93506127a28185602086016138c4565b6127ab81613a5f565b840191505092915050565b60006127c1826136f4565b6127cb8185613721565b93506127db8185602086016138c4565b80840191505092915050565b600081546127f4816138f7565b6127fe8186613721565b94506001821660008114612819576001811461282a5761285d565b60ff1983168652818601935061285d565b612833856136d4565b60005b8381101561285557815481890152600182019150602081019050612836565b838801955050505b50505092915050565b6000612873603283613710565b91507f4552433732313a207472616e7366657220746f206e6f6e20455243373231526560008301527f63656976657220696d706c656d656e74657200000000000000000000000000006020830152604082019050919050565b60006128d9601c83613710565b91507f4552433732313a20746f6b656e20616c7265616479206d696e746564000000006000830152602082019050919050565b6000612919602a83613710565b91507f4f707073212043616e6e6f7420637265617465206d6f7265207468616e20313060008301527f2045706963204e465473000000000000000000000000000000000000000000006020830152604082019050919050565b600061297f600a83613721565b91507f54484952445f574f5244000000000000000000000000000000000000000000006000830152600a82019050919050565b60006129bf602483613710565b91507f4552433732313a207472616e7366657220746f20746865207a65726f2061646460008301527f72657373000000000000000000000000000000000000000000000000000000006020830152604082019050919050565b6000612a25601983613710565b91507f4552433732313a20617070726f766520746f2063616c6c6572000000000000006000830152602082019050919050565b6000612a65606383613721565b91507f222c20226465736372697074696f6e223a20224120686967686c79206163636c60008301527f61696d656420636f6c6c656374696f6e206f6620737175617265732e222c202260208301527f696d616765223a2022646174613a696d6167652f7376672b786d6c3b6261736560408301527f36342c00000000000000000000000000000000000000000000000000000000006060830152606382019050919050565b6000612b17600b83613721565b91507f5345434f4e445f574f52440000000000000000000000000000000000000000006000830152600b82019050919050565b6000612b57602c83613710565b91507f4552433732313a206f70657261746f7220717565727920666f72206e6f6e657860008301527f697374656e7420746f6b656e00000000000000000000000000000000000000006020830152604082019050919050565b6000612bbd600d83613721565b91507f3c2f746578743e3c2f7376673e000000000000000000000000000000000000006000830152600d82019050919050565b6000612bfd603883613710565b91507f4552433732313a20617070726f76652063616c6c6572206973206e6f74206f7760008301527f6e6572206e6f7220617070726f76656420666f7220616c6c00000000000000006020830152604082019050919050565b6000612c63602a83613710565b91507f4552433732313a2062616c616e636520717565727920666f7220746865207a6560008301527f726f2061646472657373000000000000000000000000000000000000000000006020830152604082019050919050565b6000612cc9602983613710565b91507f4552433732313a206f776e657220717565727920666f72206e6f6e657869737460008301527f656e7420746f6b656e00000000000000000000000000000000000000000000006020830152604082019050919050565b6000612d2f602e83613710565b91507f45524337323155524953746f726167653a2055524920736574206f66206e6f6e60008301527f6578697374656e7420746f6b656e0000000000000000000000000000000000006020830152604082019050919050565b6000612d95600283613721565b91507f227d0000000000000000000000000000000000000000000000000000000000006000830152600282019050919050565b6000612dd5602083613710565b91507f4552433732313a206d696e7420746f20746865207a65726f20616464726573736000830152602082019050919050565b6000612e15603183613710565b91507f45524337323155524953746f726167653a2055524920717565727920666f722060008301527f6e6f6e6578697374656e7420746f6b656e0000000000000000000000000000006020830152604082019050919050565b6000612e7b602c83613710565b91507f4552433732313a20617070726f76656420717565727920666f72206e6f6e657860008301527f697374656e7420746f6b656e00000000000000000000000000000000000000006020830152604082019050919050565b6000612ee1602983613710565b91507f4552433732313a207472616e73666572206f6620746f6b656e2074686174206960008301527f73206e6f74206f776e00000000000000000000000000000000000000000000006020830152604082019050919050565b6000612f47602f83613710565b91507f4552433732314d657461646174613a2055524920717565727920666f72206e6f60008301527f6e6578697374656e7420746f6b656e00000000000000000000000000000000006020830152604082019050919050565b6000612fad600a83613721565b91507f7b226e616d65223a2022000000000000000000000000000000000000000000006000830152600a82019050919050565b6000612fed602183613710565b91507f4552433732313a20617070726f76616c20746f2063757272656e74206f776e6560008301527f72000000000000000000000000000000000000000000000000000000000000006020830152604082019050919050565b6000613053600a83613721565b91507f46495253545f574f5244000000000000000000000000000000000000000000006000830152600a82019050919050565b6000613093601d83613721565b91507f646174613a6170706c69636174696f6e2f6a736f6e3b6261736536342c0000006000830152601d82019050919050565b60006130d3603183613710565b91507f4552433732313a207472616e736665722063616c6c6572206973206e6f74206f60008301527f776e6572206e6f7220617070726f7665640000000000000000000000000000006020830152604082019050919050565b6000613139600583613721565b91507f434f4c4f520000000000000000000000000000000000000000000000000000006000830152600582019050919050565b613175816138ab565b82525050565b600061318782846127b6565b915081905092915050565b600061319e82856127b6565b91506131aa82846127b6565b91508190509392505050565b60006131c282866127b6565b91506131ce82856127b6565b91506131da82846127b6565b9150819050949350505050565b60006131f382876127e7565b91506131ff82866127b6565b915061320b82856127e7565b915061321782846127b6565b915061322282612bb0565b915081905095945050505050565b600061323b82612972565b915061324782846127b6565b915081905092915050565b600061325d82612b0a565b915061326982846127b6565b915081905092915050565b600061327f82612fa0565b915061328b82856127b6565b915061329682612a58565b91506132a282846127b6565b91506132ad82612d88565b91508190509392505050565b60006132c482613046565b91506132d082846127b6565b915081905092915050565b60006132e682613086565b91506132f282846127b6565b915081905092915050565b60006133088261312c565b915061331482846127b6565b915081905092915050565b60006020820190506133346000830184612726565b92915050565b600060808201905061334f6000830187612726565b61335c6020830186612726565b613369604083018561316c565b818103606083015261337b8184612744565b905095945050505050565b600060408201905061339b6000830184612726565b81810360208301526133ac8161290c565b905092915050565b60006040820190506133c96000830185612726565b6133d6602083018461316c565b9392505050565b60006020820190506133f26000830184612735565b92915050565b60006020820190508181036000830152613412818461277d565b905092915050565b60006060820190508181036000830152613434818661277d565b9050613443602083018561316c565b6134506040830184612726565b949350505050565b6000602082019050818103600083015261347181612866565b9050919050565b60006020820190508181036000830152613491816128cc565b9050919050565b600060208201905081810360008301526134b1816129b2565b9050919050565b600060208201905081810360008301526134d181612a18565b9050919050565b600060208201905081810360008301526134f181612b4a565b9050919050565b6000602082019050818103600083015261351181612bf0565b9050919050565b6000602082019050818103600083015261353181612c56565b9050919050565b6000602082019050818103600083015261355181612cbc565b9050919050565b6000602082019050818103600083015261357181612d22565b9050919050565b6000602082019050818103600083015261359181612dc8565b9050919050565b600060208201905081810360008301526135b181612e08565b9050919050565b600060208201905081810360008301526135d181612e6e565b9050919050565b600060208201905081810360008301526135f181612ed4565b9050919050565b6000602082019050818103600083015261361181612f3a565b9050919050565b6000602082019050818103600083015261363181612fe0565b9050919050565b60006020820190508181036000830152613651816130c6565b9050919050565b600060208201905061366d600083018461316c565b92915050565b6000604051905081810181811067ffffffffffffffff8211171561369a57613699613a30565b5b8060405250919050565b600067ffffffffffffffff8211156136bf576136be613a30565b5b601f19601f8301169050602081019050919050565b60008190508160005260206000209050919050565b600081519050919050565b600081519050919050565b600082825260208201905092915050565b600082825260208201905092915050565b600081905092915050565b6000613737826138ab565b9150613742836138ab565b9250827fffffffffffffffffffffffffffffffffffffffffffffffffffffffffffffffff03821115613777576137766139a3565b5b828201905092915050565b600061378d826138ab565b9150613798836138ab565b9250826137a8576137a76139d2565b5b828204905092915050565b60006137be826138ab565b91506137c9836138ab565b9250817fffffffffffffffffffffffffffffffffffffffffffffffffffffffffffffffff0483118215151615613802576138016139a3565b5b828202905092915050565b6000613818826138ab565b9150613823836138ab565b925082821015613836576138356139a3565b5b828203905092915050565b600061384c8261388b565b9050919050565b60008115159050919050565b60007fffffffff0000000000000000000000000000000000000000000000000000000082169050919050565b600073ffffffffffffffffffffffffffffffffffffffff82169050919050565b6000819050919050565b82818337600083830152505050565b60005b838110156138e25780820151818401526020810190506138c7565b838111156138f1576000848401525b50505050565b6000600282049050600182168061390f57607f821691505b6020821081141561392357613922613a01565b5b50919050565b6000613934826138ab565b91507fffffffffffffffffffffffffffffffffffffffffffffffffffffffffffffffff821415613967576139666139a3565b5b600182019050919050565b600061397d826138ab565b9150613988836138ab565b925082613998576139976139d2565b5b828206905092915050565b7f4e487b7100000000000000000000000000000000000000000000000000000000600052601160045260246000fd5b7f4e487b7100000000000000000000000000000000000000000000000000000000600052601260045260246000fd5b7f4e487b7100000000000000000000000000000000000000000000000000000000600052602260045260246000fd5b7f4e487b7100000000000000000000000000000000000000000000000000000000600052604160045260246000fd5b6000601f19601f8301169050919050565b613a7981613841565b8114613a8457600080fd5b50565b613a9081613853565b8114613a9b57600080fd5b50565b613aa78161385f565b8114613ab257600080fd5b50565b613abe816138ab565b8114613ac957600080fd5b5056fe416e204e465420772f20494420257320686173206265656e206d696e74656420746f2025734142434445464748494a4b4c4d4e4f505152535455565758595a6162636465666768696a6b6c6d6e6f707172737475767778797a303132333435363738392b2fa264697066735822122024cf405a2c9244ad7b2998b400047406f78555a45002eba53a1d343c73fdd6df64736f6c634300080000333c73766720786d6c6e733d27687474703a2f2f7777772e77332e6f72672f323030302f73766727207072657365727665417370656374526174696f3d27784d696e594d696e206d656574272076696577426f783d273020302033353020333530273e3c7374796c653e2e62617365207b2066696c6c3a2077686974653b20666f6e742d66616d696c793a2073657269663b20666f6e742d73697a653a20323470783b207d3c2f7374796c653e3c726563742077696474683d273130302527206865696768743d2731303025272066696c6c3d27272f3e3c7465787420783d273530252720793d273530252720636c6173733d27626173652720646f6d696e616e742d626173656c696e653d276d6964646c652720746578742d616e63686f723d276d6964646c65273e",
  "linkReferences": {},
  "deployedLinkReferences": {}
}